Special output:
<opcode 0x44> "tetazoo puntlist (sha3-512 of newline-separated hex hashes of seeds)"
OP_DROP
<opcode 0x40> <sha3 hash of file>
OP_DROP
OP_TRUE

Hex:
44 746574617A6F6F2070756E746C6973742028736861332D353132206F66206E65776C696E652D7365706172617465642068657820686173686573206F6620736565647329
75
40 E8CFCEE8CC92DD8F38025468F2709DCEB192C8E3C195E284B18B07383BC7D7076E25988043AA6DA7C9BFAEB59B69F52857B8A1C978A9AAF7641CDC58F801F13F
75
51
Concatenated:
44746574617A6F6F2070756E746C6973742028736861332D353132206F66206E65776C696E652D7365706172617465642068657820686173686573206F66207365656473297540E8CFCEE8CC92DD8F38025468F2709DCEB192C8E3C195E284B18B07383BC7D7076E25988043AA6DA7C9BFAEB59B69F52857B8A1C978A9AAF7641CDC58F801F13F7551


special transaction:
version number (little endian): 01000000
txin#: 01
txin list:
    prevtx hash (reversed): 175413f4bac4613c3fffd92ca86d549da9071452a18cb51ff1520cc73a09c9b0
    prevtx index: 00000000
    txin script length: 00
    txin script: <missing>
    sequence #: ffffffff
txout #: 02
txout list:
    value: 0100000000000000
    txout script length: 89
    txout script: 44746574617A6F6F2070756E746C6973742028736861332D353132206F66206E65776C696E652D7365706172617465642068657820686173686573206F66207365656473297540E8CFCEE8CC92DD8F38025468F2709DCEB192C8E3C195E284B18B07383BC7D7076E25988043AA6DA7C9BFAEB59B69F52857B8A1C978A9AAF7641CDC58F801F13F7551

    value: 8f00790000000000
    txout script length: 19
    txout script: 76a91488ce6e519146bf6330be197a20701806cf2f161f88ac
lock_time: 00000000

Concatenated:
0100000001175413f4bac4613c3fffd92ca86d549da9071452a18cb51ff1520cc73a09c9b00000000000ffffffff0201000000000000008944746574617A6F6F2070756E746C6973742028736861332D353132206F66206E65776C696E652D7365706172617465642068657820686173686573206F66207365656473297540E8CFCEE8CC92DD8F38025468F2709DCEB192C8E3C195E284B18B07383BC7D7076E25988043AA6DA7C9BFAEB59B69F52857B8A1C978A9AAF7641CDC58F801F13F75518f007900000000001976a91488ce6e519146bf6330be197a20701806cf2f161f88ac00000000

Signed:
0100000001175413f4bac4613c3fffd92ca86d549da9071452a18cb51ff1520cc73a09c9b0000000008c493046022100c9fda60b82a3d7a08ea8c39fc6dcd238f4ef61e01d3522ff5ff901168fe3eae2022100be7b9e03339029d023c3c0c72232aa695bd3cd383c99b376fc3294e3f73bc852014104d545d4d03b5af1e6bbe0911322e1045a1dc86d7f013ff027c086fd4c5227425c68a6cc06d42d886029e897292041ba7fc8c42767e56ddb5628065fcbf0549b67ffffffff0201000000000000008944746574617a6f6f2070756e746c6973742028736861332d353132206f66206e65776c696e652d7365706172617465642068657820686173686573206f66207365656473297540e8cfcee8cc92dd8f38025468f2709dceb192c8e3c195e284b18b07383bc7d7076e25988043aa6da7c9bfaeb59b69f52857b8a1c978a9aaf7641cdc58f801f13f75518f007900000000001976a91488ce6e519146bf6330be197a20701806cf2f161f88ac00000000



test raw transaction:
version number: 01000000
txin#: 01
txin list:
    prevtx hash (reversed): 175413f4bac4613c3fffd92ca86d549da9071452a18cb51ff1520cc73a09c9b0
    prevtx index: 00000000
    txin script length: 00
    txin script: <missing>
    sequence #: ffffffff
txout#: 01
txout list:
    value: 00e1f50500000000
    txout script length: 19
    txout script: 76a91488ce6e519146bf6330be197a20701806cf2f161f88ac
lock_time: 00000000


raw transaction b0c9093ac70c52f11fb58ca1521407a99d546da82cd9ff3f3c61c4baf4135417:
version number (little endian): 01000000
txin#: 01
txin list:
    prevtx hash (reversed): 7189f178b92f6a070accabf02607b42971782d48625dce7719bba87c832d6a30
    prevtx index: 00000000 
    txin script length: 8a
    txin script: 
        push 0x47: 47
        <sig>: 3044022016ce47f5fbb4077447e39e14eb5d46386d0350a3350f48778a7590691828ad9702200accdfe1f2bf73b7ed5fa5e52d22177b1fe4373d2e67b8db0c0f364d42a5530a01
        push 0x41: 41
        <pubkey>: 04d545d4d03b5af1e6bbe0911322e1045a1dc86d7f013ff027c086fd4c5227425c68a6cc06d42d886029e897292041ba7fc8c42767e56ddb5628065fcbf0549b67
    sequence #:ffffffff
txout#: 02
txout list:
    value (satoshis, little endian): e0c3790000000000
    txout script length: 19
    txout script: 76a91488ce6e519146bf6330be197a20701806cf2f161f88ac

    value (satoshis, little endian): 8096980000000000
    txout script length: 19
    txout script: 76a914d40249591a02111f5df9bd089dc327f9483ab23a88ac
lock_time: 00000000

